{
  "contractName": "agriFoodSupplyChain",
  "abi": [
    {
      "inputs": [],
      "stateMutability": "nonpayable",
      "type": "constructor"
    },
    {
      "anonymous": false,
      "inputs": [
        {
          "indexed": false,
          "internalType": "string",
          "name": "productId",
          "type": "string"
        },
        {
          "indexed": false,
          "internalType": "string",
          "name": "productName",
          "type": "string"
        },
        {
          "indexed": false,
          "internalType": "string",
          "name": "category",
          "type": "string"
        },
        {
          "indexed": false,
          "internalType": "uint256",
          "name": "price",
          "type": "uint256"
        },
        {
          "indexed": false,
          "internalType": "uint256",
          "name": "quantity",
          "type": "uint256"
        },
        {
          "indexed": false,
          "internalType": "uint256",
          "name": "totalPrice",
          "type": "uint256"
        },
        {
          "indexed": false,
          "internalType": "string",
          "name": "description",
          "type": "string"
        },
        {
          "indexed": false,
          "internalType": "address payable",
          "name": "seller",
          "type": "address"
        },
        {
          "indexed": false,
          "internalType": "bool",
          "name": "isActive",
          "type": "bool"
        }
      ],
      "name": "AddedProduct",
      "type": "event"
    },
    {
      "anonymous": false,
      "inputs": [
        {
          "indexed": false,
          "internalType": "string",
          "name": "productId",
          "type": "string"
        },
        {
          "indexed": false,
          "internalType": "string",
          "name": "productName",
          "type": "string"
        },
        {
          "indexed": false,
          "internalType": "address",
          "name": "sellerAddress",
          "type": "address"
        },
        {
          "indexed": false,
          "internalType": "uint256",
          "name": "purchaseId",
          "type": "uint256"
        },
        {
          "indexed": false,
          "internalType": "bool",
          "name": "isBought",
          "type": "bool"
        }
      ],
      "name": "BuyedProduct",
      "type": "event"
    },
    {
      "anonymous": false,
      "inputs": [
        {
          "indexed": false,
          "internalType": "string",
          "name": "productId",
          "type": "string"
        },
        {
          "indexed": false,
          "internalType": "uint256",
          "name": "purchaseId",
          "type": "uint256"
        },
        {
          "indexed": false,
          "internalType": "string",
          "name": "productName",
          "type": "string"
        },
        {
          "indexed": false,
          "internalType": "address",
          "name": "canceledBy",
          "type": "address"
        },
        {
          "indexed": false,
          "internalType": "string",
          "name": "shipmentStatus",
          "type": "string"
        },
        {
          "indexed": false,
          "internalType": "bool",
          "name": "isCanceled",
          "type": "bool"
        },
        {
          "indexed": false,
          "internalType": "bool",
          "name": "isActive",
          "type": "bool"
        }
      ],
      "name": "CancelOrderDetails",
      "type": "event"
    },
    {
      "anonymous": false,
      "inputs": [
        {
          "indexed": false,
          "internalType": "string",
          "name": "productId",
          "type": "string"
        },
        {
          "indexed": false,
          "internalType": "uint256",
          "name": "purchaseId",
          "type": "uint256"
        },
        {
          "indexed": false,
          "internalType": "string",
          "name": "productName",
          "type": "string"
        },
        {
          "indexed": false,
          "internalType": "address",
          "name": "refundBySeller",
          "type": "address"
        },
        {
          "indexed": false,
          "internalType": "address",
          "name": "refundTobuyer",
          "type": "address"
        },
        {
          "indexed": false,
          "internalType": "uint256",
          "name": "refundPrice",
          "type": "uint256"
        },
        {
          "indexed": false,
          "internalType": "string",
          "name": "refundStatus",
          "type": "string"
        },
        {
          "indexed": false,
          "internalType": "bool",
          "name": "isRefunded",
          "type": "bool"
        }
      ],
      "name": "RefundDetails",
      "type": "event"
    },
    {
      "anonymous": false,
      "inputs": [
        {
          "indexed": false,
          "internalType": "uint256",
          "name": "purchaseId",
          "type": "uint256"
        },
        {
          "indexed": false,
          "internalType": "string",
          "name": "shipmentDetails",
          "type": "string"
        },
        {
          "indexed": false,
          "internalType": "bool",
          "name": "isActive",
          "type": "bool"
        }
      ],
      "name": "UpdatedShipmentDetails",
      "type": "event"
    },
    {
      "anonymous": false,
      "inputs": [
        {
          "indexed": false,
          "internalType": "string",
          "name": "userName",
          "type": "string"
        },
        {
          "indexed": false,
          "internalType": "address",
          "name": "userAddress",
          "type": "address"
        },
        {
          "indexed": false,
          "internalType": "string",
          "name": "userType",
          "type": "string"
        },
        {
          "indexed": false,
          "internalType": "bool",
          "name": "isCreated",
          "type": "bool"
        }
      ],
      "name": "UserCreated",
      "type": "event"
    },
    {
      "inputs": [
        {
          "internalType": "uint256",
          "name": "",
          "type": "uint256"
        }
      ],
      "name": "allProducts",
      "outputs": [
        {
          "internalType": "string",
          "name": "productId",
          "type": "string"
        },
        {
          "internalType": "string",
          "name": "productName",
          "type": "string"
        },
        {
          "internalType": "string",
          "name": "category",
          "type": "string"
        },
        {
          "internalType": "uint256",
          "name": "price",
          "type": "uint256"
        },
        {
          "internalType": "uint256",
          "name": "quantity",
          "type": "uint256"
        },
        {
          "internalType": "uint256",
          "name": "totalPrice",
          "type": "uint256"
        },
        {
          "internalType": "string",
          "name": "description",
          "type": "string"
        },
        {
          "internalType": "address payable",
          "name": "seller",
          "type": "address"
        },
        {
          "internalType": "bool",
          "name": "isActive",
          "type": "bool"
        }
      ],
      "stateMutability": "view",
      "type": "function",
      "constant": true
    },
    {
      "inputs": [],
      "name": "owner",
      "outputs": [
        {
          "internalType": "address payable",
          "name": "",
          "type": "address"
        }
      ],
      "stateMutability": "view",
      "type": "function",
      "constant": true
    },
    {
      "inputs": [
        {
          "internalType": "address",
          "name": "",
          "type": "address"
        }
      ],
      "name": "sellers",
      "outputs": [
        {
          "internalType": "string",
          "name": "name",
          "type": "string"
        },
        {
          "internalType": "address",
          "name": "addr",
          "type": "address"
        },
        {
          "internalType": "bool",
          "name": "isCreated",
          "type": "bool"
        }
      ],
      "stateMutability": "view",
      "type": "function",
      "constant": true
    },
    {
      "inputs": [
        {
          "internalType": "string",
          "name": "_name",
          "type": "string"
        }
      ],
      "name": "sellerSignUp",
      "outputs": [],
      "stateMutability": "payable",
      "type": "function",
      "payable": true
    },
    {
      "inputs": [],
      "name": "getSellerDetails",
      "outputs": [
        {
          "internalType": "string",
          "name": "",
          "type": "string"
        },
        {
          "internalType": "address",
          "name": "",
          "type": "address"
        },
        {
          "internalType": "bool",
          "name": "",
          "type": "bool"
        }
      ],
      "stateMutability": "view",
      "type": "function",
      "constant": true
    },
    {
      "inputs": [
        {
          "internalType": "string",
          "name": "_productId",
          "type": "string"
        },
        {
          "internalType": "string",
          "name": "_productName",
          "type": "string"
        },
        {
          "internalType": "string",
          "name": "_category",
          "type": "string"
        },
        {
          "internalType": "uint256",
          "name": "_price",
          "type": "uint256"
        },
        {
          "internalType": "uint256",
          "name": "_quantity",
          "type": "uint256"
        },
        {
          "internalType": "string",
          "name": "_description",
          "type": "string"
        }
      ],
      "name": "addProduct",
      "outputs": [],
      "stateMutability": "nonpayable",
      "type": "function"
    },
    {
      "inputs": [
        {
          "internalType": "string",
          "name": "_productId",
          "type": "string"
        }
      ],
      "name": "getProductDetails",
      "outputs": [
        {
          "internalType": "string",
          "name": "",
          "type": "string"
        },
        {
          "internalType": "string",
          "name": "",
          "type": "string"
        },
        {
          "internalType": "string",
          "name": "",
          "type": "string"
        },
        {
          "internalType": "string",
          "name": "",
          "type": "string"
        },
        {
          "internalType": "uint256",
          "name": "",
          "type": "uint256"
        },
        {
          "internalType": "uint256",
          "name": "",
          "type": "uint256"
        },
        {
          "internalType": "address",
          "name": "",
          "type": "address"
        }
      ],
      "stateMutability": "view",
      "type": "function",
      "constant": true
    },
    {
      "inputs": [
        {
          "internalType": "string",
          "name": "_name",
          "type": "string"
        },
        {
          "internalType": "string",
          "name": "_deliveryAddress",
          "type": "string"
        }
      ],
      "name": "buyerSignUp",
      "outputs": [],
      "stateMutability": "nonpayable",
      "type": "function"
    },
    {
      "inputs": [],
      "name": "getBuyerDetails",
      "outputs": [
        {
          "internalType": "string",
          "name": "",
          "type": "string"
        },
        {
          "internalType": "address",
          "name": "",
          "type": "address"
        },
        {
          "internalType": "string",
          "name": "",
          "type": "string"
        },
        {
          "internalType": "bool",
          "name": "",
          "type": "bool"
        }
      ],
      "stateMutability": "view",
      "type": "function",
      "constant": true
    },
    {
      "inputs": [
        {
          "internalType": "string",
          "name": "_productId",
          "type": "string"
        }
      ],
      "name": "buyProduct",
      "outputs": [],
      "stateMutability": "payable",
      "type": "function",
      "payable": true
    },
    {
      "inputs": [
        {
          "internalType": "uint256",
          "name": "_index",
          "type": "uint256"
        }
      ],
      "name": "getOrdersPlaced",
      "outputs": [
        {
          "internalType": "string",
          "name": "",
          "type": "string"
        },
        {
          "internalType": "uint256",
          "name": "",
          "type": "uint256"
        },
        {
          "internalType": "address",
          "name": "",
          "type": "address"
        },
        {
          "internalType": "string",
          "name": "",
          "type": "string"
        }
      ],
      "stateMutability": "view",
      "type": "function",
      "constant": true
    },
    {
      "inputs": [
        {
          "internalType": "string",
          "name": "_productId",
          "type": "string"
        },
        {
          "internalType": "uint256",
          "name": "_purchaseId",
          "type": "uint256"
        }
      ],
      "name": "getShipmentDetails",
      "outputs": [
        {
          "internalType": "string",
          "name": "",
          "type": "string"
        },
        {
          "internalType": "string",
          "name": "",
          "type": "string"
        },
        {
          "internalType": "address",
          "name": "",
          "type": "address"
        },
        {
          "internalType": "string",
          "name": "",
          "type": "string"
        }
      ],
      "stateMutability": "view",
      "type": "function",
      "constant": true
    },
    {
      "inputs": [
        {
          "internalType": "uint256",
          "name": "_purchaseId",
          "type": "uint256"
        },
        {
          "internalType": "string",
          "name": "_shipmentDetails",
          "type": "string"
        }
      ],
      "name": "updateShipmentDetails",
      "outputs": [],
      "stateMutability": "nonpayable",
      "type": "function"
    },
    {
      "inputs": [
        {
          "internalType": "uint256",
          "name": "_index",
          "type": "uint256"
        }
      ],
      "name": "buyerOrderDetails",
      "outputs": [
        {
          "internalType": "string",
          "name": "",
          "type": "string"
        },
        {
          "internalType": "string",
          "name": "",
          "type": "string"
        },
        {
          "internalType": "uint256",
          "name": "",
          "type": "uint256"
        },
        {
          "internalType": "string",
          "name": "",
          "type": "string"
        }
      ],
      "stateMutability": "view",
      "type": "function",
      "constant": true
    },
    {
      "inputs": [
        {
          "internalType": "string",
          "name": "_productId",
          "type": "string"
        },
        {
          "internalType": "uint256",
          "name": "_purchaseId",
          "type": "uint256"
        }
      ],
      "name": "refundToBuyer",
      "outputs": [],
      "stateMutability": "payable",
      "type": "function",
      "payable": true
    },
    {
      "inputs": [
        {
          "internalType": "string",
          "name": "_productId",
          "type": "string"
        },
        {
          "internalType": "uint256",
          "name": "_purchaseId",
          "type": "uint256"
        }
      ],
      "name": "cancelOrder",
      "outputs": [],
      "stateMutability": "payable",
      "type": "function",
      "payable": true
    }
  ],
  "bytecode": "0x60806040526001805534801561001457600080fd5b5060008054600160a060020a0319163317905561564e806100366000396000f3fe608060405260043610610110576000357c0100000000000000000000000000000000000000000000000000000000900480636d47ab72116100a7578063a08b301711610076578063a08b301714610c41578063a306174214610e95578063b1fcdca514610f72578063cfaaef5614610fe657610110565b80636d47ab7214610a295780638da5cb5b14610a5c5780639617e88514610a8d5780639657b0b314610b3557610110565b8063364e022f116100e3578063364e022f146105865780633c92ae7e1461062c5780633cebe90d1461076657806366dde4fa1461082057610110565b8063198c59b0146101155780631b4e791a146103905780631e1cdf6c1461043a5780632c0b4798146104e0575b600080fd5b34801561012157600080fd5b506101c86004803603602081101561013857600080fd5b81019060208101813564010000000081111561015357600080fd5b82018360208201111561016557600080fd5b8035906020019184600183028401116401000000008311171561018757600080fd5b91908080601f0160208091040260200160405190810160405280939291908181526020018383808284376000920191909152509295506111e8945050505050565b604051808060200180602001806020018060200188815260200187815260200186600160a060020a0316815260200185810385528c818151815260200191508051906020019080838360005b8381101561022c578181015183820152602001610214565b50505050905090810190601f1680156102595780820380516001836020036101000a031916815260200191505b5085810384528b5181528b516020918201918d019080838360005b8381101561028c578181015183820152602001610274565b50505050905090810190601f1680156102b95780820380516001836020036101000a031916815260200191505b5085810383528a5181528a516020918201918c019080838360005b838110156102ec5781810151838201526020016102d4565b50505050905090810190601f1680156103195780820380516001836020036101000a031916815260200191505b5085810382528951815289516020918201918b019080838360005b8381101561034c578181015183820152602001610334565b50505050905090810190601f1680156103795780820380516001836020036101000a031916815260200191505b509b50505050505050505050505060405180910390f35b610438600480360360408110156103a657600080fd5b8101906020810181356401000000008111156103c157600080fd5b8201836020820111156103d357600080fd5b803590602001918460018302840111640100000000831117156103f557600080fd5b91908080601f016020809104026020016040519081016040528093929190818152602001838380828437600092019190915250929550509135925061171f915050565b005b6104386004803603602081101561045057600080fd5b81019060208101813564010000000081111561046b57600080fd5b82018360208201111561047d57600080fd5b8035906020019184600183028401116401000000008311171561049f57600080fd5b91908080601f016020809104026020016040519081016040528093929190818152602001838380828437600092019190915250929550611dbf945050505050565b3480156104ec57600080fd5b506104f5611fa0565b604051808060200184600160a060020a031681526020018315158152602001828103825285818151815260200191508051906020019080838360005b83811015610549578181015183820152602001610531565b50505050905090810190601f1680156105765780820380516001836020036101000a031916815260200191505b5094505050505060405180910390f35b6104386004803603602081101561059c57600080fd5b8101906020810181356401000000008111156105b757600080fd5b8201836020820111156105c957600080fd5b803590602001918460018302840111640100000000831117156105eb57600080fd5b91908080601f01602080910402602001604051908101604052809392919081815260200183838082843760009201919091525092955061206b945050505050565b34801561063857600080fd5b506104386004803603604081101561064f57600080fd5b81019060208101813564010000000081111561066a57600080fd5b82018360208201111561067c57600080fd5b8035906020019184600183028401116401000000008311171561069e57600080fd5b91908080601f01602080910402602001604051908101604052809392919081815260200183838082843760009201919091525092959493602081019350359150506401000000008111156106f157600080fd5b82018360208201111561070357600080fd5b8035906020019184600183028401116401000000008311171561072557600080fd5b91908080601f016020809104026020016040519081016040528093929190818152602001838380828437600092019190915250929550612bfa945050505050565b34801561077257600080fd5b506104386004803603604081101561078957600080fd5b813591908101906040810160208201356401000000008111156107ab57600080fd5b8201836020820111156107bd57600080fd5b803590602001918460018302840111640100000000831117156107df57600080fd5b91908080601f016020809104026020016040519081016040528093929190818152602001838380828437600092019190915250929550612e1b945050505050565b34801561082c57600080fd5b506108d56004803603604081101561084357600080fd5b81019060208101813564010000000081111561085e57600080fd5b82018360208201111561087057600080fd5b8035906020019184600183028401116401000000008311171561089257600080fd5b91908080601f0160208091040260200160405190810160405280939291908181526020018383808284376000920191909152509295505091359250612fbb915050565b60405180806020018060200185600160a060020a0316815260200180602001848103845288818151815260200191508051906020019080838360005b83811015610929578181015183820152602001610911565b50505050905090810190601f1680156109565780820380516001836020036101000a031916815260200191505b50848103835287518152875160209182019189019080838360005b83811015610989578181015183820152602001610971565b50505050905090810190601f1680156109b65780820380516001836020036101000a031916815260200191505b50848103825285518152855160209182019187019080838360005b838110156109e95781810151838201526020016109d1565b50505050905090810190601f168015610a165780820380516001836020036101000a031916815260200191505b5097505050505050505060405180910390f35b348015610a3557600080fd5b506104f560048036036020811015610a4c57600080fd5b5035600160a060020a031661342b565b348015610a6857600080fd5b50610a716134e8565b60408051600160a060020a039092168252519081900360200190f35b61043860048036036040811015610aa357600080fd5b810190602081018135640100000000811115610abe57600080fd5b820183602082011115610ad057600080fd5b80359060200191846001830284011164010000000083111715610af257600080fd5b91908080601f01602080910402602001604051908101604052809392919081815260200183838082843760009201919091525092955050913592506134f7915050565b348015610b4157600080fd5b50610b4a613d2a565b604051808060200185600160a060020a03168152602001806020018415158152602001838103835287818151815260200191508051906020019080838360005b83811015610ba2578181015183820152602001610b8a565b50505050905090810190601f168015610bcf5780820380516001836020036101000a031916815260200191505b50838103825285518152855160209182019187019080838360005b83811015610c02578181015183820152602001610bea565b50505050905090810190601f168015610c2f5780820380516001836020036101000a031916815260200191505b50965050505050505060405180910390f35b348015610c4d57600080fd5b50610438600480360360c0811015610c6457600080fd5b810190602081018135640100000000811115610c7f57600080fd5b820183602082011115610c9157600080fd5b80359060200191846001830284011164010000000083111715610cb357600080fd5b91908080601f0160208091040260200160405190810160405280939291908181526020018383808284376000920191909152509295949360208101935035915050640100000000811115610d0657600080fd5b820183602082011115610d1857600080fd5b80359060200191846001830284011164010000000083111715610d3a57600080fd5b91908080601f0160208091040260200160405190810160405280939291908181526020018383808284376000920191909152509295949360208101935035915050640100000000811115610d8d57600080fd5b820183602082011115610d9f57600080fd5b80359060200191846001830284011164010000000083111715610dc157600080fd5b91908080601f0160208091040260200160405190810160405280939291908181526020018383808284376000920191909152509295843595602086013595919450925060608101915060400135640100000000811115610e2057600080fd5b820183602082011115610e3257600080fd5b80359060200191846001830284011164010000000083111715610e5457600080fd5b91908080601f016020809104026020016040519081016040528093929190818152602001838380828437600092019190915250929550613e89945050505050565b348015610ea157600080fd5b50610ebf60048036036020811015610eb857600080fd5b503561491a565b604051808060200185815260200184600160a060020a0316815260200180602001838103835287818151815260200191508051906020019080838360005b83811015610f15578181015183820152602001610efd565b50505050905090810190601f168015610f425780820380516001836020036101000a031916815260200191505b50838103825284518152845160209182019186019080838360008315610c02578181015183820152602001610bea565b348015610f7e57600080fd5b50610f9c60048036036020811015610f9557600080fd5b5035614ba7565b604051808060200180602001858152602001806020018481038452888181518152602001915080519060200190808383600083811015610929578181015183820152602001610911565b348015610ff257600080fd5b506110106004803603602081101561100957600080fd5b5035614f2f565b604051808060200180602001806020018a81526020018981526020018881526020018060200187600160a060020a03168152602001861515815260200185810385528e818151815260200191508051906020019080838360005b8381101561108257818101518382015260200161106a565b50505050905090810190601f1680156110af5780820380516001836020036101000a031916815260200191505b5085810384528d5181528d516020918201918f019080838360005b838110156110e25781810151838201526020016110ca565b50505050905090810190601f16801561110f5780820380516001836020036101000a031916815260200191505b5085810383528c5181528c516020918201918e019080838360005b8381101561114257818101518382015260200161112a565b50505050905090810190601f16801561116f5780820380516001836020036101000a031916815260200191505b5085810382528851815288516020918201918a019080838360005b838110156111a257818101518382015260200161118a565b50505050905090810190601f1680156111cf5780820380516001836020036101000a031916815260200191505b509d505050505050505050505050505060405180910390f35b60608060608060008060006004886040518082805190602001908083835b602083106112255780518252601f199092019160209182019101611206565b51815160209384036101000a600019018019909216911617905292019485525060405193849003810184208c519094600494508d9350918291908401908083835b602083106112855780518252601f199092019160209182019101611266565b6001836020036101000a038019825116818451168082178552505050505050905001915050908152602001604051809103902060010160048a6040518082805190602001908083835b602083106112ed5780518252601f1990920191602091820191016112ce565b6001836020036101000a038019825116818451168082178552505050505050905001915050908152602001604051809103902060020160048b6040518082805190602001908083835b602083106113555780518252601f199092019160209182019101611336565b6001836020036101000a038019825116818451168082178552505050505050905001915050908152602001604051809103902060060160048c6040518082805190602001908083835b602083106113bd5780518252601f19909201916020918201910161139e565b6001836020036101000a03801982511681845116808217855250505050505090500191505090815260200160405180910390206003015460048d6040518082805190602001908083835b602083106114265780518252601f199092019160209182019101611407565b6001836020036101000a03801982511681845116808217855250505050505090500191505090815260200160405180910390206004015460048e6040518082805190602001908083835b6020831061148f5780518252601f199092019160209182019101611470565b518151600019602094850361010090810a82019283169219939093169190911790925294909201968752604080519788900382018820600701548e54601f6002600183161590980290950116959095049283018290048202880182019052818752600160a060020a039093169594508b93509184019050828280156115555780601f1061152a57610100808354040283529160200191611555565b820191906000526020600020905b81548152906001019060200180831161153857829003601f168201915b5050895460408051602060026001851615610100026000190190941693909304601f8101849004840282018401909252818152959c508b9450925084019050828280156115e35780601f106115b8576101008083540402835291602001916115e3565b820191906000526020600020905b8154815290600101906020018083116115c657829003601f168201915b5050885460408051602060026001851615610100026000190190941693909304601f8101849004840282018401909252818152959b508a9450925084019050828280156116715780601f1061164657610100808354040283529160200191611671565b820191906000526020600020905b81548152906001019060200180831161165457829003601f168201915b5050875460408051602060026001851615610100026000190190941693909304601f8101849004840282018401909252818152959a50899450925084019050828280156116ff5780601f106116d4576101008083540402835291602001916116ff565b820191906000526020600020905b8154815290600101906020018083116116e257829003601f168201915b505050505093509650965096509650965096509650919395979092949650565b33600081815260036020526040902060010154600160a060020a03161461177a5760405160e560020a62461bcd0281526004018080602001828103825260238152602001806155546023913960400191505060405180910390fd5b600760006004846040518082805190602001908083835b602083106117b05780518252601f199092019160209182019101611791565b51815160209384036101000a60001901801990921691161790529201948552506040805194859003820190942060070154600160a060020a031685528481019590955250509081016000908120600254825290925290206004015460a060020a900460ff16158061185757503360009081526007602090815260408083208484529091529020600401547501000000000000000000000000000000000000000000900460ff165b6118955760405160e560020a62461bcd02815260040180806020018281038252602b815260200180615492602b913960400191505060405180910390fd5b6004826040518082805190602001908083835b602083106118c75780518252601f1990920191602091820191016118a8565b51815160209384036101000a60001901801990921691161790529201948552506040519384900301909220600501543414915061193a90505760405160e560020a62461bcd0281526004018080602001828103825260248152602001806155cc6024913960400191505060405180910390fd5b336000908152600760209081526040808320848452909152808220600401549051600160a060020a0391909116913480156108fc02929091818181858888f1935050505015801561198f573d6000803e3d6000fd5b506040518060600160405280602981526020016155f060299139600760006004856040518082805190602001908083835b602083106119df5780518252601f1990920191602091820191016119c0565b51815160209384036101000a60001901801990921691161790529201948552506040805194859003820190942060070154600160a060020a0316855284810195909552505090810160009081208582528352208251611a489360029092019291909101906151d0565b507f4ef65091eb1a4c29314cc631a0f6d411ae8277e1d6d28b84fe77d4afd40437e582826004856040518082805190602001908083835b60208310611a9e5780518252601f199092019160209182019101611a7f565b6001836020036101000a03801982511681845116808217855250505050505090500191505090815260200160405180910390206001016004866040518082805190602001908083835b60208310611b065780518252601f199092019160209182019101611ae7565b51815160209384036101000a60001901801990921691161790529201948552506040805194859003820185206007908101543360009081528285528381208d825285529283206004908101548e51600160a060020a0393841699939091169750349650929490928e92918291908401908083835b60208310611b995780518252601f199092019160209182019101611b7a565b6001836020036101000a038019825116818451168082178552505050505050905001915050908152602001604051809103902060070160009054906101000a9004600160a060020a0316600160a060020a0316600160a060020a031681526020019081526020016000206000898152602001908152602001600020600201600160405180806020018981526020018060200188600160a060020a0316815260200187600160a060020a0316815260200186815260200180602001851515815260200184810384528c818151815260200191508051906020019080838360005b83811015611c90578181015183820152602001611c78565b50505050905090810190601f168015611cbd5780820380516001836020036101000a031916815260200191505b5084810383528a54600260001961010060018416150201909116048082526020909101908b908015611d305780601f10611d0557610100808354040283529160200191611d30565b820191906000526020600020905b815481529060010190602001808311611d1357829003601f168201915b5050848103825286546002600019610100600184161502019091160480825260209091019087908015611da45780601f10611d7957610100808354040283529160200191611da4565b820191906000526020600020905b815481529060010190602001808311611d8757829003601f168201915b50509b50505050505050505050505060405180910390a15050565b3360009081526003602052604090206001015460a060020a900460ff1615611e1b5760405160e560020a62461bcd0281526004018080602001828103825260248152602001806155776024913960400191505060405180910390fd5b60008054604051600160a060020a03909116913480156108fc02929091818181858888f19350505050158015611e55573d6000803e3d6000fd5b503360009081526003602090815260409091208251611e76928401906151d0565b503360008181526003602090815260408083206001908101805460a060020a60ff021973ffffffffffffffffffffffffffffffffffffffff1990911687171660a060020a179055815180840186905260608101829052608080825287519082015286517ff0e60315a11a2d0b1457ef229d5a5d0c28e7c83066b1b137550eec4375ee52bb968896909593949293849384019260a0850192918901918190849084905b83811015611f30578181015183820152602001611f18565b50505050905090810190601f168015611f5d5780820380516001836020036101000a031916815260200191505b50928303905250600681527f73656c6c6572000000000000000000000000000000000000000000000000000060208201526040805191829003019350915050a150565b33600090815260036020908152604080832060018082015482548451600261010094831615949094026000190190911692909204601f8101869004860283018601909452838252606095948594600160a060020a0383169360a060020a90930460ff1692918591908301828280156120595780601f1061202e57610100808354040283529160200191612059565b820191906000526020600020905b81548152906001019060200180831161203c57829003601f168201915b50505050509250925092509250909192565b3360009081526008602052604090206003015460ff166120bf5760405160e560020a62461bcd0281526004018080602001828103825260328152602001806154f16032913960400191505060405180910390fd5b6004816040518082805190602001908083835b602083106120f15780518252601f1990920191602091820191016120d2565b51815160209384036101000a600019018019909216911617905292019485525060405193849003019092206007015460a060020a900460ff1691506121829050576040805160e560020a62461bcd02815260206004820152601360248201527f50726f6475637420697320496e41637469766500000000000000000000000000604482015290519081900360640190fd5b6004816040518082805190602001908083835b602083106121b45780518252601f199092019160209182019101612195565b51815160209384036101000a60001901801990921691161790529201948552506040519384900301909220600501543414915061222790505760405160e560020a62461bcd02815260040180806020018281038252602d81526020018061542b602d913960400191505060405180910390fd5b6004816040518082805190602001908083835b602083106122595780518252601f19909201916020918201910161223a565b51815160001960209485036101000a019081169019919091161790529201948552506040519384900301832060070154600160a060020a0316923480156108fc02935091506000818181858888f193505050501580156122bd573d6000803e3d6000fd5b50600180548082019091556002556122d361524e565b60405180608001604052808381526020016040518060400160405280601881526020017f4f7264657220506c6163656420576974682053656c6c6572000000000000000081525081526020016002548152602001600760006004866040518082805190602001908083835b6020831061235d5780518252601f19909201916020918201910161233e565b518151602093840361010090810a60001990810180199094169390921692909217909252929094019687526040805197889003820190972060070154600160a060020a0316885287810198909852958501600090812060028054835290895290869020810180548751600182161590990290940190931604601f8101889004880287018801909552508385529394850191508390508280156124405780601f1061241557610100808354040283529160200191612440565b820191906000526020600020905b81548152906001019060200180831161242357829003601f168201915b505050919092525050336000908152600960209081526040822080546001810182559083529181902083518051949550859460049094029091019261248892849201906151d0565b5060208281015180516124a192600185019201906151d0565b5060408201516002820155606082015180516124c79160038401916020909101906151d0565b5050506124d2615276565b6040518060600160405280848152602001600254815260200133600160a060020a03168152509050600660006004856040518082805190602001908083835b602083106125305780518252601f199092019160209182019101612511565b51815160209384036101000a60001901801990921691161790529201948552506040805194859003820190942060070154600160a060020a031685528481019590955250500160009081208054600181018255908252908290208351805185946003909402909201926125a8928492909101906151d0565b506020820151816001015560408201518160020160006101000a815481600160a060020a030219169083600160a060020a03160217905550505082600760006004866040518082805190602001908083835b602083106126195780518252601f1990920191602091820191016125fa565b51815160209384036101000a60001901801990921691161790529201948552506040805194859003820190942060070154600160a060020a0316855284810195909552505090810160009081206002548252835220825161268093919291909101906151d0565b5033600760006004866040518082805190602001908083835b602083106126b85780518252601f199092019160209182019101612699565b51815160209384036101000a600019018019909216911617905292019485525060408051948590038201909420600790810154600160a060020a0390811687528683019790975294840160009081206002805483529083528582206004908101805473ffffffffffffffffffffffffffffffffffffffff19169a90991699909917909755955493518a519497959695948b945090925082918401908083835b602083106127765780518252601f199092019160209182019101612757565b51815160209384036101000a600019018019909216911617905292019485525060408051948590038201909420600790810154600160a060020a03168652858201969096529383016000908120600280548352908652848220600101979097553381526008855283812093518a51949097019690946004948b94509192508291908401908083835b6020831061281d5780518252601f1990920191602091820191016127fe565b6001836020036101000a038019825116818451168082178552505050505050905001915050908152602001604051809103902060070160009054906101000a9004600160a060020a0316600160a060020a0316600160a060020a031681526020019081526020016000206000600254815260200190815260200160002060030190805460018160011615610100020316600290046128bc9291906152a0565b506001600760006004866040518082805190602001908083835b602083106128f55780518252601f1990920191602091820191016128d6565b51815160209384036101000a60001901801990921691161790529201948552506040805194859003820190942060070154600160a060020a031685528481019590955250509081016000908120600254825283528181206004908101805460a060020a60ff02191660a060020a961515969096029590951790945590518651919392879282918401908083835b602083106129a15780518252601f199092019160209182019101612982565b51815160209384036101000a60001901801990921691161790529201948552506040519384900381018420600701805460a060020a60ff02191660a060020a9615159690960295909517909455505084517f3fcbabb4f6418f76d2a668c400509bd623446452aa5ad829702a6b8cada349ab92869260049284928291908401908083835b60208310612a445780518252601f199092019160209182019101612a25565b6001836020036101000a03801982511681845116808217855250505050505090500191505090815260200160405180910390206001016004866040518082805190602001908083835b60208310612aac5780518252601f199092019160209182019101612a8d565b51815160209384036101000a600019018019909216911617905292019485525060408051948590038201852060070154600254600160a060020a039091169186018290526060860181905260016080870181905260a08088528951908801528851929691955093509182918282019160c0840191908a019080838360005b83811015612b42578181015183820152602001612b2a565b50505050905090810190601f168015612b6f5780820380516001836020036101000a031916815260200191505b50838103825287546002600019610100600184161502019091160480825260209091019088908015612be25780601f10612bb757610100808354040283529160200191612be2565b820191906000526020600020905b815481529060010190602001808311612bc557829003601f168201915b505097505050505050505060405180910390a1505050565b33600081815260036020526040902060010154600160a060020a03161415612c565760405160e560020a62461bcd0281526004018080602001828103825260248152602001806155776024913960400191505060405180910390fd5b3360009081526008602052604090206003015460ff1615612cab5760405160e560020a62461bcd0281526004018080602001828103825260238152602001806153826023913960400191505060405180910390fd5b3360009081526008602090815260409091208351612ccb928501906151d0565b5033600081815260086020908152604090912060018101805473ffffffffffffffffffffffffffffffffffffffff19169093179092558251612d1392600201918401906151d0565b50336000818152600860209081526040808320600301805460ff19166001908117909155815180840186905260608101829052608080825288519082015287517ff0e60315a11a2d0b1457ef229d5a5d0c28e7c83066b1b137550eec4375ee52bb968996909593949293849384019260a0850192918901918190849084905b83811015612daa578181015183820152602001612d92565b50505050905090810190601f168015612dd75780820380516001836020036101000a031916815260200191505b50928303905250600581527f627579657200000000000000000000000000000000000000000000000000000060208201526040805191829003019350915050a15050565b33600081815260036020526040902060010154600160a060020a031614612e765760405160e560020a62461bcd02815260040180806020018281038252602f8152602001806153fc602f913960400191505060405180910390fd5b33600090815260076020908152604080832085845290915290206004015460a060020a900460ff16612edc5760405160e560020a62461bcd0281526004018080602001828103825260258152602001806153a56025913960400191505060405180910390fd5b33600090815260076020908152604080832085845282529091208251612f0a926002909201918401906151d0565b507ffff2fa42ab07f2c41cd6be78230fc20004a280b9e27939209670cbf08f8c3f538282600160405180848152602001806020018315158152602001828103825284818151815260200191508051906020019080838360005b83811015612f7b578181015183820152602001612f63565b50505050905090810190601f168015612fa85780820380516001836020036101000a031916815260200191505b5094505050505060405180910390a15050565b60608060006060600760006004886040518082805190602001908083835b60208310612ff85780518252601f199092019160209182019101612fd9565b51815160209384036101000a600019018019909216911617905292019485525060408051948590038201909420600790810154600160a060020a031686528582019690965293830160009081208b8252855283812093518c519496959194600494508d935090918291908401908083835b602083106130885780518252601f199092019160209182019101613069565b51815160209384036101000a600019018019909216911617905292019485525060408051948590038201909420600790810154600160a060020a031686528582019690965293830160009081208c8252855283812093518d51600290950196959194600494508e935090918291908401908083835b6020831061311c5780518252601f1990920191602091820191016130fd565b6001836020036101000a038019825116818451168082178552505050505050905001915050908152602001604051809103902060070160009054906101000a9004600160a060020a0316600160a060020a0316600160a060020a03168152602001908152602001600020600088815260200190815260200160002060040160009054906101000a9004600160a060020a03166007600060048b6040518082805190602001908083835b602083106131e45780518252601f1990920191602091820191016131c5565b6001836020036101000a038019825116818451168082178552505050505050905001915050908152602001604051809103902060070160009054906101000a9004600160a060020a0316600160a060020a0316600160a060020a031681526020019081526020016000206000898152602001908152602001600020600301838054600181600116156101000203166002900480601f0160208091040260200160405190810160405280929190818152602001828054600181600116156101000203166002900480156132f75780601f106132cc576101008083540402835291602001916132f7565b820191906000526020600020905b8154815290600101906020018083116132da57829003601f168201915b5050865460408051602060026001851615610100026000190190941693909304601f8101849004840282018401909252818152959950889450925084019050828280156133855780601f1061335a57610100808354040283529160200191613385565b820191906000526020600020905b81548152906001019060200180831161336857829003601f168201915b5050845460408051602060026001851615610100026000190190941693909304601f8101849004840282018401909252818152959850869450925084019050828280156134135780601f106133e857610100808354040283529160200191613413565b820191906000526020600020905b8154815290600101906020018083116133f657829003601f168201915b50505050509050935093509350935092959194509250565b60036020908152600091825260409182902080548351601f600260001961010060018616150201909316929092049182018490048402810184019094528084529092918391908301828280156134c25780601f10613497576101008083540402835291602001916134c2565b820191906000526020600020905b8154815290600101906020018083116134a557829003601f168201915b50505060019093015491925050600160a060020a0381169060ff60a060020a9091041683565b600054600160a060020a031681565b33600160a060020a0316600760006004856040518082805190602001908083835b602083106135375780518252601f199092019160209182019101613518565b51815160209384036101000a60001901801990921691161790529201948552506040805194859003820190942060070154600160a060020a039081168652858201969096529383016000908120888252909452505090206004015416146135d25760405160e560020a62461bcd02815260040180806020018281038252603181526020018061559b6031913960400191505060405180910390fd5b600760006004846040518082805190602001908083835b602083106136085780518252601f1990920191602091820191016135e9565b51815160209384036101000a60001901801990921691161790529201948552506040805194859003820190942060070154600160a060020a031685528481019590955250509081016000908120600254825290925290206004015460a060020a900460ff166136c1576040805160e560020a62461bcd02815260206004820152601f60248201527f596f7520416c72656164792043616e63656c65642054686973206f7264657200604482015290519081900360640190fd5b60405180606001604052806031815260200161552360319139600760006004856040518082805190602001908083835b602083106137105780518252601f1990920191602091820191016136f1565b51815160209384036101000a60001901801990921691161790529201948552506040805194859003820190942060070154600160a060020a03168552848101959095525050908101600090812085825283522082516137799360029092019291909101906151d0565b506001600760006004856040518082805190602001908083835b602083106137b25780518252601f199092019160209182019101613793565b51815160209384036101000a600019018019909216911617905292019485525060408051948590038201909420600790810154600160a060020a0316865285820196909652938301600090812088825285528381206004908101805475ff000000000000000000000000000000000000000000191675010000000000000000000000000000000000000000009915159990990298909817909755925188519396879590948a94509192508291908401908083835b602083106138855780518252601f199092019160209182019101613866565b51815160209384036101000a60001901801990921691161790529201948552506040805194859003820190942060070154600160a060020a03168552848101959095525050908101600090812085825283528190206004908101805460a060020a60ff02191660a060020a95151595909502949094179093555184517f8235cab0ca27684a5f36e527c70b17e37ee0ca61f1fb62e39aafa6bb62b936d2938693869391928592918291908401908083835b602083106139555780518252601f199092019160209182019101613936565b6001836020036101000a038019825116818451168082178552505050505050905001915050908152602001604051809103902060010133600760006004896040518082805190602001908083835b602083106139c25780518252601f1990920191602091820191016139a3565b51815160209384036101000a600019018019909216911617905292019485525060408051948590038201909420600790810154600160a060020a031686528582019690965293830160009081208c8252855283812093518d51600290950196959194600494508e935090918291908401908083835b60208310613a565780518252601f199092019160209182019101613a37565b51815160209384036101000a600019018019909216911617905292019485525060408051948590038201909420600790810154600160a060020a031686528582019690965293830160009081208d8252855283812060049081015494518f51750100000000000000000000000000000000000000000090960460ff16979692959194508f9350918291908401908083835b60208310613b065780518252601f199092019160209182019101613ae7565b6001836020036101000a038019825116818451168082178552505050505050905001915050908152602001604051809103902060070160009054906101000a9004600160a060020a0316600160a060020a0316600160a060020a03168152602001908152602001600020600089815260200190815260200160002060040160149054906101000a900460ff1660405180806020018881526020018060200187600160a060020a03168152602001806020018615158152602001851515815260200184810384528b818151815260200191508051906020019080838360005b83811015613bfc578181015183820152602001613be4565b50505050905090810190601f168015613c295780820380516001836020036101000a031916815260200191505b5084810383528954600260001961010060018416150201909116048082526020909101908a908015613c9c5780601f10613c7157610100808354040283529160200191613c9c565b820191906000526020600020905b815481529060010190602001808311613c7f57829003601f168201915b5050848103825287546002600019610100600184161502019091160480825260209091019088908015613d105780601f10613ce557610100808354040283529160200191613d10565b820191906000526020600020905b815481529060010190602001808311613cf357829003601f168201915b50509a505050505050505050505060405180910390a15050565b3360009081526008602090815260408083206001808201546003830154835485516002610100958316159590950260001901909116849004601f8101889004880282018801909652858152606097968896889695600160a060020a039095169486019360ff169291869190830182828015613de65780601f10613dbb57610100808354040283529160200191613de6565b820191906000526020600020905b815481529060010190602001808311613dc957829003601f168201915b5050855460408051602060026001851615610100026000190190941693909304601f810184900484028201840190925281815295995087945092508401905082828015613e745780601f10613e4957610100808354040283529160200191613e74565b820191906000526020600020905b815481529060010190602001808311613e5757829003601f168201915b50505050509150935093509350935090919293565b3360009081526003602052604090206001015460a060020a900460ff16613efa576040805160e560020a62461bcd02815260206004820181905260248201527f596f7520617265206e6f7420526567697374657265642061732053656c6c6572604482015290519081900360640190fd5b6004866040518082805190602001908083835b60208310613f2c5780518252601f199092019160209182019101613f0d565b51815160209384036101000a600019018019909216911617905292019485525060405193849003019092206007015460a060020a900460ff16159150613fa890505760405160e560020a62461bcd02815260040180806020018281038252603a815260200180615458603a913960400191505060405180910390fd5b613fb0615315565b60405180610120016040528088815260200187815260200186815260200185670de0b6b3a76400000281526020018481526020018486670de0b6b3a76400000202815260200183815260200133600160a060020a03168152602001600115158152509050866004886040518082805190602001908083835b602083106140475780518252601f199092019160209182019101614028565b51815160209384036101000a6000190180199092169116179052920194855250604051938490038101909320845161408895919491909101925090506151d0565b50856004886040518082805190602001908083835b602083106140bc5780518252601f19909201916020918201910161409d565b6001836020036101000a038019825116818451168082178552505050505050905001915050908152602001604051809103902060010190805190602001906141059291906151d0565b50846004886040518082805190602001908083835b602083106141395780518252601f19909201916020918201910161411a565b51815160209384036101000a6000190180199092169116179052920194855250604051938490038101909320845161417e9560029092019491909101925090506151d0565b50816004886040518082805190602001908083835b602083106141b25780518252601f199092019160209182019101614193565b51815160209384036101000a600019018019909216911617905292019485525060405193849003810190932084516141f79560069092019491909101925090506151d0565b5083670de0b6b3a7640000026004886040518082805190602001908083835b602083106142355780518252601f199092019160209182019101614216565b51815160209384036101000a60001901801990921691161790529201948552506040519384900381018420600301949094555050885185926004928b9290918291908401908083835b6020831061429d5780518252601f19909201916020918201910161427e565b51815160209384036101000a600019018019909216911617905292019485525060405193849003810184206004908101959095558b518c949350839250908401908083835b602083106143015780518252601f1990920191602091820191016142e2565b6001836020036101000a0380198251168184511680821785525050505050509050019150509081526020016040518091039020600401546004886040518082805190602001908083835b6020831061436a5780518252601f19909201916020918201910161434b565b51815160209384036101000a60001901801990921691161790529201948552506040519384900381018420600301548c519502946004948d9450925082918401908083835b602083106143ce5780518252601f1990920191602091820191016143af565b51815160209384036101000a60001901801990921691161790529201948552506040519384900381018420600501949094555050885133926004928b9290918291908401908083835b602083106144365780518252601f199092019160209182019101614417565b51815160209384036101000a60001901801990921691161790529201948552506040519384900381018420600701805473ffffffffffffffffffffffffffffffffffffffff1916600160a060020a039690961695909517909455505088516001926004928b9290918291908401908083835b602083106144c75780518252601f1990920191602091820191016144a8565b51815160001960209485036101000a01908116901991909116179052920194855250604051938490038101909320600701805494151560a060020a0260a060020a60ff02199095169490941790935550600580546001810182556000919091528351805185945060089092027f036b6384b5eca791c62761152d0c79bb0604c104a5fb6f4eb0703f3154bb3db00192614565928492909101906151d0565b50602082810151805161457e92600185019201906151d0565b506040820151805161459a9160028401916020909101906151d0565b50606082015160038201556080820151600482015560a0820151600582015560c082015180516145d49160068401916020909101906151d0565b5060e08201516007909101805461010090930151151560a060020a0260a060020a60ff0219600160a060020a0390931673ffffffffffffffffffffffffffffffffffffffff19909416939093179190911691909117905560405187517f69df67b9ac10d8d1bc6fd49db51891b47e33117da666f1aaafbed1da590c199291899189918991670de0b6b3a76400008a029189916004918791819060208401908083835b602083106146955780518252601f199092019160209182019101614676565b6001836020036101000a03801982511681845116808217855250505050505090500191505090815260200160405180910390206004015460048e6040518082805190602001908083835b602083106146fe5780518252601f1990920191602091820191016146df565b6001836020036101000a0380198251168184511680821785525050505050509050019150509081526020016040518091039020600301540288336001604051808060200180602001806020018a81526020018981526020018881526020018060200187600160a060020a03168152602001861515815260200185810385528e818151815260200191508051906020019080838360005b838110156147ac578181015183820152602001614794565b50505050905090810190601f1680156147d95780820380516001836020036101000a031916815260200191505b5085810384528d5181528d516020918201918f019080838360005b8381101561480c5781810151838201526020016147f4565b50505050905090810190601f1680156148395780820380516001836020036101000a031916815260200191505b5085810383528c5181528c516020918201918e019080838360005b8381101561486c578181015183820152602001614854565b50505050905090810190601f1680156148995780820380516001836020036101000a031916815260200191505b5085810382528851815288516020918201918a019080838360005b838110156148cc5781810151838201526020016148b4565b50505050905090810190601f1680156148f95780820380516001836020036101000a031916815260200191505b509d505050505050505050505050505060405180910390a150505050505050565b3360008181526003602052604081206001015460609282918491600160a060020a039091161461497e5760405160e560020a62461bcd0281526004018080602001828103825260328152602001806153ca6032913960400191505060405180910390fd5b33600090815260066020526040902080548690811061499957fe5b6000918252602080832033845260069091526040909220805460039092029092019190879081106149c657fe5b9060005260206000209060030201600101546006600033600160a060020a0316600160a060020a031681526020019081526020016000208781548110614a0857fe5b6000918252602080832060026003909302019190910154338352600782526040808420600690935283208054600160a060020a0390921693918b908110614a4b57fe5b9060005260206000209060030201600101548152602001908152602001600020600201838054600181600116156101000203166002900480601f016020809104026020016040519081016040528092919081815260200182805460018160011615610100020316600290048015614b035780601f10614ad857610100808354040283529160200191614b03565b820191906000526020600020905b815481529060010190602001808311614ae657829003601f168201915b5050845460408051602060026001851615610100026000190190941693909304601f810184900484028201840190925281815295995086945092508401905082828015614b915780601f10614b6657610100808354040283529160200191614b91565b820191906000526020600020905b815481529060010190602001808311614b7457829003601f168201915b5050505050905093509350935093509193509193565b336000818152600860205260408120600101546060928392918391600160a060020a0390911614614c0c5760405160e560020a62461bcd0281526004018080602001828103825260348152602001806154bd6034913960400191505060405180910390fd5b336000908152600960205260409020805486908110614c2757fe5b600091825260208083203384526009909152604090922080546004909202909201919087908110614c5457fe5b90600052602060002090600402016001016009600033600160a060020a0316600160a060020a031681526020019081526020016000208781548110614c9557fe5b9060005260206000209060040201600201546007600060046009600033600160a060020a0316600160a060020a031681526020019081526020016000208b81548110614cdd57fe5b90600052602060002090600402016000016040518082805460018160011615610100020316600290048015614d495780601f10614d27576101008083540402835291820191614d49565b820191906000526020600020905b815481529060010190602001808311614d35575b50509283525050604080516020928190038301902060070154600160a060020a03168352828201939093529082016000908120338252600990925291822080549192918b908110614d9657fe5b600091825260208083206002600490930201820154845283810194909452604092830190912086548351601f60001961010060018516150201909216849004918201869004860281018601909452808452910192869190830182828015614e3e5780601f10614e1357610100808354040283529160200191614e3e565b820191906000526020600020905b815481529060010190602001808311614e2157829003601f168201915b5050865460408051602060026001851615610100026000190190941693909304601f810184900484028201840190925281815295995088945092508401905082828015614ecc5780601f10614ea157610100808354040283529160200191614ecc565b820191906000526020600020905b815481529060010190602001808311614eaf57829003601f168201915b5050845460408051602060026001851615610100026000190190941693909304601f810184900484028201840190925281815295985086945092508401905082828015614b915780601f10614b6657610100808354040283529160200191614b91565b60058181548110614f3c57fe5b60009182526020918290206008919091020180546040805160026001841615610100026000190190931692909204601f810185900485028301850190915280825291935091839190830182828015614fd55780601f10614faa57610100808354040283529160200191614fd5565b820191906000526020600020905b815481529060010190602001808311614fb857829003601f168201915b505050505090806001018054600181600116156101000203166002900480601f0160208091040260200160405190810160405280929190818152602001828054600181600116156101000203166002900480156150735780601f1061504857610100808354040283529160200191615073565b820191906000526020600020905b81548152906001019060200180831161505657829003601f168201915b50505060028085018054604080516020601f60001961010060018716150201909416959095049283018590048502810185019091528181529596959450909250908301828280156151055780601f106150da57610100808354040283529160200191615105565b820191906000526020600020905b8154815290600101906020018083116150e857829003601f168201915b505050600384015460048501546005860154600687018054604080516020601f600260001961010060018816150201909516949094049384018190048102820181019092528281529899959894975092955090918301828280156151aa5780601f1061517f576101008083540402835291602001916151aa565b820191906000526020600020905b81548152906001019060200180831161518d57829003601f168201915b50505060079093015491925050600160a060020a0381169060ff60a060020a9091041689565b828054600181600116156101000203166002900490600052602060002090601f016020900481019282601f1061521157805160ff191683800117855561523e565b8280016001018555821561523e579182015b8281111561523e578251825591602001919060010190615223565b5061524a92915061536c565b5090565b6040518060800160405280606081526020016060815260200160008152602001606081525090565b604051806060016040528060608152602001600081526020016000600160a060020a031681525090565b828054600181600116156101000203166002900490600052602060002090601f016020900481019282601f106152d9578054855561523e565b8280016001018555821561523e57600052602060002091601f016020900482015b8281111561523e5782548255916001019190600101906152fa565b604051806101200160405280606081526020016060815260200160608152602001600081526020016000815260200160008152602001606081526020016000600160a060020a031681526020016000151581525090565b5b8082111561524a576000815560010161536d56fe596f752061726520416c726561647920526567697374657265642061732062757965724f726465722069732065697468657220696e416374697665206f722063616e63656c6c65644f6e6c792073656c6c65722063616e2061626c6520746f20616363657373207468656972206f726465722064657461696c734f6e6c792073656c6c65722063616e2061626c6520746f2075706461746520736869706d656e742064657461696c7345746865722056616c7565204d75737420626520457175616c20746f205072696365206f662050726f6475637450726f647563742057697468207468697320496420697320616c7265616479204163746976652e20557365206f7468657220556e6971756549644f726465722069732065697468657220416374697665206f72206e6f74207965742043616e63656c6c65644f6e6c792062757965722063616e2061626c6520746f206765742064657461696c7320666f722074686569722070726f64756374596f75204d757374204265205265676973746572656420617320427579657220746f20427579207468652070726f647563744f726465722043616e63656c65642042792042757965722c205061796d656e742077696c6c20426520526566756e6465644f6e6c792073656c6c65722063616e2061626c6520746f206d616b6520726566756e64596f752061726520416c726561647920526567697374657265642061732073656c6c6572596f7520617265206e6f7420417574686f72697a656420746f20546869732050726f64756374205075726368617365496456616c7565204d75737420626520457175616c20746f2050726f647563742050726963654f726465722043616e63656c65642042792042757965722c205061796d656e7420526566756e646564a2646970667358221220cf1c96026d737f8b36f7434da29e71814176b61e177e0253519fc47798ca9edd64736f6c634300060c0033",
  "immutableReferences": {},
  "source": "// SPDX-License-Identifier: MIT\r\npragma solidity >=0.5.0 <0.7.0;\r\n\r\ncontract agriFoodSupplyChain {\r\n\r\n   address payable public owner;\r\n\r\n    constructor() public {\r\n       owner=msg.sender;\r\n    }\r\n\r\n    uint id = 1;\r\n    uint purchaseId;\r\n\r\n    // seller struct consists of all Required details about the seller\r\n    struct seller {\r\n        string name;\r\n        address addr;\r\n        bool isCreated;\r\n    }\r\n\r\n    // struct product with all required variables and made string mapping to struct\r\n    struct product{\r\n        string productId;\r\n        string productName;\r\n        string category;\r\n        uint price; // in wel\r\n        uint quantity; // in kgs\r\n        uint totalPrice;\r\n        string description;\r\n        address payable seller;\r\n        bool isActive;\r\n    }\r\n\r\n    // struct ordersPlaced with required Tracking Detail\r\n    struct ordersPlaced {\r\n        string productId;\r\n        uint purchaseId;\r\n        address orderedBy;\r\n    }\r\n\r\n    // Struct sellerShipment with all required variables for Tracking and Updating Details\r\n    struct sellerShipment {\r\n        string productId;\r\n        uint purchaseId;\r\n        string shipmentStatus;\r\n        string deliveryAddress;\r\n        address  payable orderedBy;\r\n        bool isActive;\r\n        bool isCanceled;\r\n    }\r\n\r\n    // Struct user with required user details\r\n    struct buyer{\r\n        string name;\r\n        address addr;\r\n        string deliveryAddress;\r\n        bool isCreated;\r\n    }\r\n\r\n    // struct orders with order detail\r\n    struct orders{\r\n        string productId;\r\n        string orderStatus;\r\n        uint purchaseId;\r\n        string shipmentStatus;\r\n    }\r\n\r\n    // seller details in a mapping called sellers with address index\r\n    mapping(address => seller) public sellers;\r\n\r\n    // string mapping to struct so update or buy Product with productId String\r\n    mapping (string => product) products;\r\n    product[] public allProducts;\r\n\r\n    // mapped struct array with seller address so that every seller can Track all his listed product orders placed by buyers.\r\n    mapping (address => ordersPlaced[]) sellerOrders;\r\n\r\n    // mapped sellerShipment struct to address and nested uint\r\n    // seller can update shipment details with unique purchaseId\r\n    mapping (address => mapping(uint=>sellerShipment))sellerShipments;\r\n\r\n    // buyer details in a mapping called buyers with address index\r\n    mapping (address => buyer) buyers;\r\n\r\n    // mapped orders struct to address\r\n    mapping (address => orders[]) buyerOrders;\r\n\r\n    // log messages\r\n\r\n    // when user register is success\r\n    event UserCreated(\r\n        string userName,\r\n        address userAddress,\r\n        string userType,\r\n        bool isCreated\r\n    );\r\n\r\n    // when seller added their product successfully\r\n    event AddedProduct(\r\n        string productId,\r\n        string productName,\r\n        string category,\r\n        uint price,\r\n        uint quantity,\r\n        uint totalPrice,\r\n        string description,\r\n        address payable seller,\r\n        bool isActive\r\n    );\r\n\r\n    // when buyer bought the product successfully\r\n    event BuyedProduct(\r\n        string productId,\r\n        string productName,\r\n        address sellerAddress,\r\n        uint purchaseId,\r\n        bool isBought\r\n    );\r\n\r\n    // when seller update the shipment details\r\n    event UpdatedShipmentDetails(\r\n        uint purchaseId,\r\n        string shipmentDetails,\r\n        bool isActive\r\n    );\r\n\r\n    // when seller make refund\r\n    event RefundDetails(\r\n        string productId,\r\n        uint purchaseId,\r\n        string productName,\r\n        address refundBySeller,\r\n        address refundTobuyer,\r\n        uint refundPrice,\r\n        string refundStatus,\r\n        bool isRefunded\r\n    );\r\n\r\n    // when buyer cancel the order\r\n    event CancelOrderDetails(\r\n        string productId,\r\n        uint purchaseId,\r\n        string productName,\r\n        address canceledBy,\r\n        string shipmentStatus,\r\n        bool isCanceled,\r\n        bool isActive\r\n    );\r\n\r\n    /// @notice - sellerSignUp to signup into the system\r\n    /// @param _name - seller name of type string\r\n    function sellerSignUp(string memory _name) public payable{\r\n\r\n        // Checks if seller is already Registered. if registered, condition will be false and it reverts back to initial state\r\n        require(!sellers[msg.sender].isCreated, \"You are Already Registered as seller\");\r\n\r\n        owner.transfer(msg.value);\r\n\r\n        sellers[msg.sender].name = _name;\r\n        sellers[msg.sender].addr = msg.sender;\r\n        sellers[msg.sender].isCreated =true;\r\n\r\n        // log this transaction\r\n        emit UserCreated(\r\n                        _name,\r\n                        msg.sender,\r\n                        \"seller\",\r\n                        true\r\n        );\r\n\r\n    }\r\n\r\n\r\n    /// @notice - only registered seller can see thir details\r\n    function getSellerDetails() public view returns(string memory, address, bool) {\r\n\r\n        return(sellers[msg.sender].name,\r\n               sellers[msg.sender].addr,\r\n               sellers[msg.sender].isCreated);\r\n\r\n    }\r\n\r\n    /// @notice - only registered seller can sell their products\r\n    /// @param _productId - seller will give product id of type string\r\n    /// @param _productName - seller will give product name  of type string\r\n    /// @param _category - seller will give product category  of type string\r\n    /// @param _price - seller will give product price  of type uint\r\n    /// @param _quantity - seller will give product quantity  of type uint\r\n    /// @param _description - seller will give product details  of type string\r\n    function addProduct(string memory _productId,\r\n                        string memory _productName,\r\n                        string memory _category,\r\n                        uint _price,\r\n                        uint _quantity,\r\n                        string memory _description) public {\r\n\r\n        //  To check whether seller paid bank guarantee or not\r\n        require(sellers[msg.sender].isCreated,\"You are not Registered as Seller\");\r\n\r\n        // To check if product with the same productId is active already\r\n        require(!products[_productId].isActive, \"Product With this Id is already Active. Use other UniqueId\");\r\n\r\n        product memory Product = product(_productId,\r\n                                        _productName,\r\n                                        _category,\r\n                                        _price * 10**18,\r\n                                        _quantity,\r\n                                        (_price * 10**18) * _quantity,\r\n                                        _description,\r\n                                        msg.sender,\r\n                                        true);\r\n\r\n\r\n        products[_productId].productId = _productId;\r\n        products[_productId].productName = _productName;\r\n        products[_productId].category = _category;\r\n        products[_productId].description = _description;\r\n        products[_productId].price = _price  * 10**18; // converting wels to ether\r\n        products[_productId].quantity = _quantity;\r\n        products[_productId].totalPrice = products[_productId].price *  products[_productId].quantity;\r\n        products[_productId].seller = msg.sender;\r\n        products[_productId].isActive = true;\r\n\r\n        allProducts.push(Product);\r\n\r\n        // log this transaction\r\n        emit AddedProduct(\r\n                        _productId,\r\n                        _productName,\r\n                        _category,\r\n                        _price * 10**18,\r\n                        _quantity,\r\n                        products[_productId].price *  products[_productId].quantity,\r\n                        _description,\r\n                        msg.sender,\r\n                        true\r\n        );\r\n\r\n    }\r\n\r\n    /// @notice - only registered product details will be displayed\r\n    function getProductDetails(string memory _productId) public view returns(string memory, string memory, string memory, string memory, uint, uint, address) {\r\n\r\n        return(products[_productId].productId,\r\n                products[_productId].productName,\r\n                products[_productId].category,\r\n                products[_productId].description,\r\n                products[_productId].price,\r\n                products[_productId].quantity,\r\n                products[_productId].seller\r\n        );\r\n\r\n    }\r\n\r\n\r\n    /// @notice - buyerSignUp for buyer signup\r\n    /// @param _name - buyer will give his/her name  of type string\r\n    /// @param _deliveryAddress - buyer will give product delivery address of type string\r\n    function buyerSignUp(string memory _name, string memory _deliveryAddress) public {\r\n\r\n        // Checks if buyer is already Registered as seller. if registered, condition will be false and it reverts back to initial state\r\n        require(sellers[msg.sender].addr != msg.sender, \"You are Already Registered as seller\");\r\n\r\n        // Checks if buyer is already Registered. if registered, condition will be false and it reverts back to initial state\r\n        require(!buyers[msg.sender].isCreated, \"You are Already Registered as buyer\");\r\n\r\n\r\n        buyers[msg.sender].name = _name;\r\n        buyers[msg.sender].addr = msg.sender;\r\n        buyers[msg.sender].deliveryAddress = _deliveryAddress;\r\n        buyers[msg.sender].isCreated = true;\r\n\r\n        // log this transaction\r\n        emit UserCreated(\r\n                        _name,\r\n                        msg.sender,\r\n                        \"buyer\",\r\n                        true\r\n        );\r\n\r\n    }\r\n\r\n    /// @notice - only registered buyer can see thir details\r\n    function getBuyerDetails() public view returns(string memory, address, string memory, bool) {\r\n\r\n        return(buyers[msg.sender].name,\r\n               buyers[msg.sender].addr,\r\n               buyers[msg.sender].deliveryAddress,\r\n               buyers[msg.sender].isCreated);\r\n\r\n    }\r\n\r\n    /// @notice - only registered buyer can buy the products\r\n    /// @param _productId - buyer will give product id for buying the product  of type string\r\n    function buyProduct(string memory _productId)  public payable {\r\n\r\n        // buyer is Registered or not\r\n        require(buyers[msg.sender].isCreated, \"You Must Be Registered as Buyer to Buy the product\");\r\n\r\n        // product must be Active\r\n        require(products[_productId].isActive, \"Product is InActive\");\r\n\r\n        // msg.value is equal to product price or not\r\n        require(msg.value == products[_productId].totalPrice, \"Ether Value Must be Equal to Price of Product\");\r\n\r\n        // amount will be transferred to the seller and a unique purchaseId will be allocated to purchase.\r\n        products[_productId].seller.transfer(msg.value);\r\n\r\n        purchaseId = id++;\r\n\r\n        // Order details will be pushed to userOrders, sellerOrders and sellerShipments\r\n        orders memory order = orders(_productId,\r\n                                    \"Order Placed With Seller\",\r\n                                    purchaseId,\r\n                                    sellerShipments[products[_productId].seller][purchaseId].shipmentStatus);\r\n\r\n        buyerOrders[msg.sender].push(order);\r\n\r\n        ordersPlaced memory ord = ordersPlaced(_productId, purchaseId, msg.sender);\r\n        sellerOrders[products[_productId].seller].push(ord);\r\n\r\n        sellerShipments[products[_productId].seller][purchaseId].productId=_productId;\r\n        sellerShipments[products[_productId].seller][purchaseId].orderedBy= msg.sender;\r\n        sellerShipments[products[_productId].seller][purchaseId].purchaseId= purchaseId;\r\n        sellerShipments[products[_productId].seller][purchaseId].deliveryAddress = buyers[msg.sender].deliveryAddress;\r\n        sellerShipments[products[_productId].seller][purchaseId].isActive= true;\r\n\r\n        products[_productId].isActive = false;\r\n\r\n        // log this transaction\r\n        emit BuyedProduct(\r\n                        _productId,\r\n                        products[_productId].productName,\r\n                        products[_productId].seller,\r\n                        purchaseId,\r\n                        true\r\n        );\r\n\r\n\r\n    }\r\n\r\n    /// @notice - only registered seller can see the order details of their product\r\n    /// @param _index - seller will give index of the product of type uint\r\n    function getOrdersPlaced(uint _index) public view returns(string memory, uint, address, string memory) {\r\n\r\n        // only seller can get order details for is product\r\n        require(sellers[msg.sender].addr == msg.sender, \"Only seller can able to access their order details\");\r\n\r\n        return(sellerOrders[msg.sender][_index].productId,\r\n               sellerOrders[msg.sender][_index].purchaseId,\r\n               sellerOrders[msg.sender][_index].orderedBy,\r\n               sellerShipments[msg.sender][sellerOrders[msg.sender][_index].purchaseId].shipmentStatus);\r\n\r\n    }\r\n\r\n    /// @notice - any one with productId and pruchaseID can track Orders Placed. A unique purchaseId will be allocated to buyer on particular purchase\r\n    /// @param _purchaseId - user will give purchase id of type uint\r\n    /// @param _productId - user will give product id of type string\r\n    function getShipmentDetails(string memory _productId, uint _purchaseId) public view returns(string memory,string memory,address,string memory) {\r\n\r\n        return(sellerShipments[products[_productId].seller][_purchaseId].productId,\r\n              sellerShipments[products[_productId].seller][_purchaseId].shipmentStatus,\r\n              sellerShipments[products[_productId].seller][_purchaseId].orderedBy,\r\n              sellerShipments[products[_productId].seller][_purchaseId].deliveryAddress);\r\n\r\n    }\r\n\r\n    /// @notice - only registered seller can Update Shipment details with purchaseId\r\n    /// @param _purchaseId - seller will give purchase id of type uint\r\n    /// @param _shipmentDetails - seller will give shipment details of type string\r\n    function updateShipmentDetails(uint _purchaseId, string memory _shipmentDetails) public {\r\n\r\n        // only seller can get order details for their product\r\n        require(sellers[msg.sender].addr == msg.sender, \"Only seller can able to update shipment details\");\r\n\r\n        // Shipment details are Pushed to mapping only when Buyer Placed his order\r\n        // checks if product on particular purchaseId is active or not\r\n        require(sellerShipments[msg.sender][_purchaseId].isActive, \"Order is either inActive or cancelled\");\r\n\r\n        sellerShipments[msg.sender][_purchaseId].shipmentStatus= _shipmentDetails;\r\n\r\n        // log this transaction\r\n        emit UpdatedShipmentDetails(\r\n                                    _purchaseId,\r\n                                    _shipmentDetails,\r\n                                    true\r\n        );\r\n\r\n    }\r\n\r\n    /// @notice - only registered buyer can see the order details of their product bought\r\n    /// @param _index - buyer will give index of the product of type uint\r\n    function buyerOrderDetails (uint _index) public view returns(string memory, string memory, uint, string memory) {\r\n\r\n        // only buyer can get order details for their orde\r\n        require(buyers[msg.sender].addr == msg.sender, \"Only buyer can able to get details for their product\");\r\n\r\n        return(buyerOrders[msg.sender][_index].productId,\r\n               buyerOrders[msg.sender][_index].orderStatus,\r\n               buyerOrders[msg.sender][_index].purchaseId,\r\n               sellerShipments[products[buyerOrders[msg.sender][_index].productId].seller][buyerOrders[msg.sender][_index].purchaseId].shipmentStatus);\r\n\r\n    }\r\n\r\n    /// @notice - only registered seller can makes refund to the buyer\r\n    /// @param _productId - seller will give product id of the product of type string\r\n    /// @param _purchaseId - seller will give purchase id of the product of type uint\r\n    function refundToBuyer(string memory _productId, uint _purchaseId) public payable {\r\n\r\n        // only seller can access refund\r\n        require(sellers[msg.sender].addr == msg.sender, \"Only seller can able to make refund\");\r\n\r\n        // Check if Product with particular purchaseId is active or not\r\n        require (!sellerShipments[products[_productId].seller][purchaseId].isActive || sellerShipments[msg.sender][_purchaseId].isCanceled,\"Order is either Active or not yet Cancelled\");\r\n\r\n\r\n        // If seller Released amount equal to product price\r\n        require(msg.value==products[_productId].totalPrice,\"Value Must be Equal to Product Price\");\r\n\r\n        sellerShipments[msg.sender][_purchaseId].orderedBy.transfer(msg.value);\r\n        sellerShipments[products[_productId].seller][_purchaseId].shipmentStatus = \"Order Canceled By Buyer, Payment Refunded\";\r\n\r\n        // log this transaction\r\n        emit RefundDetails(\r\n                            _productId,\r\n                            _purchaseId,\r\n                            products[_productId].productName,\r\n                            products[_productId].seller,\r\n                            sellerShipments[msg.sender][_purchaseId].orderedBy,\r\n                            msg.value,\r\n                            sellerShipments[products[_productId].seller][_purchaseId].shipmentStatus,\r\n                            true\r\n        );\r\n\r\n    }\r\n\r\n    /// @notice - only registered buyer of the product can cancle the order\r\n    /// @param _productId - buyer will give product id of the product of type string\r\n    /// @param _purchaseId - buyer will give purchase id of the product of type unit\r\n    function cancelOrder(string memory _productId, uint _purchaseId)  public payable {\r\n\r\n        // if product with particular purchaseId is ordered by the current caller or not\r\n        require(sellerShipments[products[_productId].seller][_purchaseId].orderedBy == msg.sender, \"You are not Authorized to This Product PurchaseId\");\r\n\r\n        // if product with particular purchaseId is active or not\r\n        require (sellerShipments[products[_productId].seller][purchaseId].isActive, \"You Already Canceled This order\");\r\n\r\n        sellerShipments[products[_productId].seller][_purchaseId].shipmentStatus= \"Order Canceled By Buyer, Payment will Be Refunded\";\r\n\r\n        // sets isCanceled flag to true, isActive flag to false\r\n        sellerShipments[products[_productId].seller][_purchaseId].isCanceled = true;\r\n        sellerShipments[products[_productId].seller][_purchaseId].isActive = false;\r\n\r\n        // log this transaction\r\n        emit CancelOrderDetails(\r\n                            _productId,\r\n                            _purchaseId,\r\n                            products[_productId].productName,\r\n                            msg.sender,\r\n                            sellerShipments[products[_productId].seller][_purchaseId].shipmentStatus,\r\n                            sellerShipments[products[_productId].seller][_purchaseId].isCanceled,\r\n                            sellerShipments[products[_productId].seller][_purchaseId].isActive\r\n        );\r\n\r\n    }\r\n\r\n}",
  "sourcePath": "D:\\Main Project\\agri-food-supply-truffle\\contracts\\agriFoodSupplyChain.sol",
  "compiler": {
    "name": "solc",
    "version": "0.6.12+commit.27d51765.Emscripten.clang"
  },
  "schemaVersion": "3.4.6",
  "updatedAt": "2022-03-21T09:24:48.623Z",
  "networkType": "ethereum",
  "devdoc": {
    "kind": "dev",
    "methods": {
      "addProduct(string,string,string,uint256,uint256,string)": {
        "params": {
          "_category": "- seller will give product category  of type string",
          "_description": "- seller will give product details  of type string",
          "_price": "- seller will give product price  of type uint",
          "_productId": "- seller will give product id of type string",
          "_productName": "- seller will give product name  of type string",
          "_quantity": "- seller will give product quantity  of type uint"
        }
      },
      "buyProduct(string)": {
        "params": {
          "_productId": "- buyer will give product id for buying the product  of type string"
        }
      },
      "buyerOrderDetails(uint256)": {
        "params": {
          "_index": "- buyer will give index of the product of type uint"
        }
      },
      "buyerSignUp(string,string)": {
        "params": {
          "_deliveryAddress": "- buyer will give product delivery address of type string",
          "_name": "- buyer will give his/her name  of type string"
        }
      },
      "cancelOrder(string,uint256)": {
        "params": {
          "_productId": "- buyer will give product id of the product of type string",
          "_purchaseId": "- buyer will give purchase id of the product of type unit"
        }
      },
      "getOrdersPlaced(uint256)": {
        "params": {
          "_index": "- seller will give index of the product of type uint"
        }
      },
      "getShipmentDetails(string,uint256)": {
        "params": {
          "_productId": "- user will give product id of type string",
          "_purchaseId": "- user will give purchase id of type uint"
        }
      },
      "refundToBuyer(string,uint256)": {
        "params": {
          "_productId": "- seller will give product id of the product of type string",
          "_purchaseId": "- seller will give purchase id of the product of type uint"
        }
      },
      "sellerSignUp(string)": {
        "params": {
          "_name": "- seller name of type string"
        }
      },
      "updateShipmentDetails(uint256,string)": {
        "params": {
          "_purchaseId": "- seller will give purchase id of type uint",
          "_shipmentDetails": "- seller will give shipment details of type string"
        }
      }
    },
    "version": 1
  },
  "userdoc": {
    "kind": "user",
    "methods": {
      "addProduct(string,string,string,uint256,uint256,string)": {
        "notice": "- only registered seller can sell their products"
      },
      "buyProduct(string)": {
        "notice": "- only registered buyer can buy the products"
      },
      "buyerOrderDetails(uint256)": {
        "notice": "- only registered buyer can see the order details of their product bought"
      },
      "buyerSignUp(string,string)": {
        "notice": "- buyerSignUp for buyer signup"
      },
      "cancelOrder(string,uint256)": {
        "notice": "- only registered buyer of the product can cancle the order"
      },
      "getBuyerDetails()": {
        "notice": "- only registered buyer can see thir details"
      },
      "getOrdersPlaced(uint256)": {
        "notice": "- only registered seller can see the order details of their product"
      },
      "getProductDetails(string)": {
        "notice": "- only registered product details will be displayed"
      },
      "getSellerDetails()": {
        "notice": "- only registered seller can see thir details"
      },
      "getShipmentDetails(string,uint256)": {
        "notice": "- any one with productId and pruchaseID can track Orders Placed. A unique purchaseId will be allocated to buyer on particular purchase"
      },
      "refundToBuyer(string,uint256)": {
        "notice": "- only registered seller can makes refund to the buyer"
      },
      "sellerSignUp(string)": {
        "notice": "- sellerSignUp to signup into the system"
      },
      "updateShipmentDetails(uint256,string)": {
        "notice": "- only registered seller can Update Shipment details with purchaseId"
      }
    },
    "version": 1
  }
}